:020000040000fa
:04005c00d08400004c
:020000040000fa
:04001000d084000098
:020000040000fa
:04025c00d08400004a
:020000040000fa
:04021000d084000096
:020000040000fa
:04027400d084000032
:020000040000fa
:04033400d084000071
:020000040000fa
:04027000d084000036
:020000040000fa
:04022c00d08400007a
:020000040000fa
:04023c00d08400006a
:020000040000fa
:0402bc00d0840000ea
:020000040000fa
:0402c000d0840000e6
:020000040000fa
:0402c400d0840000e2
:020000040000fa
:04022800d08400007e
:020000040000fa
:04027800d08400002e
:020000040000fa
:04029c00d08400000a
:020000040000fa
:04026000d084000046
:020000040000fa
:04026400d084000042
:020000040000fa
:04027c00d08400002a
:020000040000fa
:04028000d084000026
:020000040000fa
:04028400d084000022
:020000040000fa
:04028800d08400001e
:020000040000fa
:0402b000d0840000f6
:020000040000fa
:0402b400d0840000f2
:020000040000fa
:0402b800d0840000ee
:020000040000fa
:04023800d08400006e
:020000040000fa
:0402c800d0840000de
:020000040000fa
:0402d000d0840000d6
:020000040000fa
:0402d400d0840000d2
:020000040000fa
:0402d800d0840000ce
:020000040000fa
:0402e000d0840000c6
:020000040000fa
:0402e400d0840000c2
:020000040000fa
:0402e800d0840000be
:020000040000fa
:0402f400d0840000b2
:020000040000fa
:0402f800d0840000ae
:020000040000fa
:0402fc00d0840000aa
:020000040000fa
:04030000d0840000a5
:020000040000fa
:04030400d0840000a1
:020000040000fa
:04030800d08400009d
:020000040000fa
:04030c00d084000099
:020000040000fa
:04031000d084000095
:020000040000fa
:04031400d084000091
:020000040000fa
:04031800d08400008d
:020000040000fa
:04031c00d084000089
:020000040000fa
:04032400d084000081
:020000040000fa
:04032800d08400007d
:020000040000fa
:04033800d08400006d
:020000040000fa
:04033c00d084000069
:020000040000fa
:04034000d084000065
:020000040000fa
:04034400d084000061
:020000040000fa
:04034800d08400005d
:020000040000fa
:04026c00d08400003a
:020000040000fa
:0402f000d0840000b6
:020000040000fa
:04021800d08400008e
:020000040000fa
:04023000d084000076
:020000040000fa
:04024000d084000066
:020000040000fa
:04028c00d08400001a
:020000040000fa
:04029000d084000016
:020000040000fa
:0402cc00d0840000da
:020000040000fa
:04020c00d08400009a
:020000040000fa
:0402dc00d0840000ca
:020000040000fa
:04032000d084000085
:020000040000fa
:04020800d08400009e
:020000040000fa
:04021c00d08400008a
:020000040000fa
:04022000d084000086
:020000040000fa
:04022400d084000082
:020000040000fa
:04026800d08400003e
:020000040000fa
:0402ec00d0840000ba
:020000040000fa
:04024c00d08400005a
:020000040000fa
:04025000d084000056
:020000040000fa
:0402a800d0840000fe
:020000040000fa
:0402ac00d0840000fa
:020000040000fa
:04021400d084000092
:020000040000fa
:04023400d084000072
:020000040000fa
:04024400d084000062
:020000040000fa
:04024800d08400005e
:020000040000fa
:04029400d084000012
:020000040000fa
:04029800d08400000e
:020000040000fa
:04032c00d084000079
:020000040000fa
:04025400d084000052
:020000040000fa
:04025800d08400004e
:020000040000fa
:04033000d084000075
:020000040000fa
:0402a000d084000006
:020000040000fa
:0402a400d084000002
:020000040000fa
:04007400d084000034
:020000040000fa
:04013400d084000073
:020000040000fa
:04007000d084000038
:020000040000fa
:04002c00d08400007c
:020000040000fa
:04003c00d08400006c
:020000040000fa
:0400bc00d0840000ec
:020000040000fa
:0400c000d0840000e8
:020000040000fa
:0400c400d0840000e4
:020000040000fa
:04002800d084000080
:020000040000fa
:04007800d084000030
:020000040000fa
:04009c00d08400000c
:020000040000fa
:04006000d084000048
:020000040000fa
:04006400d084000044
:020000040000fa
:04007c00d08400002c
:020000040000fa
:04008000d084000028
:020000040000fa
:04008400d084000024
:020000040000fa
:04008800d084000020
:020000040000fa
:0400b000d0840000f8
:020000040000fa
:0400b400d0840000f4
:020000040000fa
:0400b800d0840000f0
:020000040000fa
:04003800d084000070
:020000040000fa
:0400c800d0840000e0
:020000040000fa
:0400d000d0840000d8
:020000040000fa
:0400d400d0840000d4
:020000040000fa
:0400d800d0840000d0
:020000040000fa
:0400e000d0840000c8
:020000040000fa
:0400e400d0840000c4
:020000040000fa
:0400e800d0840000c0
:020000040000fa
:0400f400d0840000b4
:020000040000fa
:0400f800d0840000b0
:020000040000fa
:0400fc00d0840000ac
:020000040000fa
:04010000d0840000a7
:020000040000fa
:04010400d0840000a3
:020000040000fa
:04010800d08400009f
:020000040000fa
:04010c00d08400009b
:020000040000fa
:04011000d084000097
:020000040000fa
:04011400d084000093
:020000040000fa
:04011800d08400008f
:020000040000fa
:04011c00d08400008b
:020000040000fa
:04012400d084000083
:020000040000fa
:04012800d08400007f
:020000040000fa
:04013800d08400006f
:020000040000fa
:04013c00d08400006b
:020000040000fa
:04014000d084000067
:020000040000fa
:04014400d084000063
:020000040000fa
:04014800d08400005f
:020000040000fa
:04006c00d08400003c
:020000040000fa
:0400f000d0840000b8
:020000040000fa
:04001800d084000090
:020000040000fa
:04003000d084000078
:020000040000fa
:04004000d084000068
:020000040000fa
:04008c00d08400001c
:020000040000fa
:04009000d084000018
:020000040000fa
:0400cc00d0840000dc
:020000040000fa
:04000c00d08400009c
:020000040000fa
:0400dc00d0840000cc
:020000040000fa
:04012000d084000087
:020000040000fa
:04000800d0840000a0
:020000040000fa
:04001c00d08400008c
:020000040000fa
:04002000d084000088
:020000040000fa
:04002400d084000084
:020000040000fa
:04006800d084000040
:020000040000fa
:0400ec00d0840000bc
:020000040000fa
:04004c00d08400005c
:020000040000fa
:04005000d084000058
:020000040000fa
:0400a800d084000000
:020000040000fa
:0400ac00d0840000fc
:020000040000fa
:04001400d084000094
:020000040000fa
:04003400d084000074
:020000040000fa
:04004400d084000064
:020000040000fa
:04004800d084000060
:020000040000fa
:04009400d084000014
:020000040000fa
:04009800d084000010
:020000040000fa
:04012c00d08400007b
:020000040000fa
:04005400d084000054
:020000040000fa
:04005800d084000050
:020000040000fa
:04013000d084000077
:020000040000fa
:0400a000d084000008
:020000040000fa
:0400a400d084000004
:020000040000fa
:08000000088404000000000068
:020000040000fa
:020000040001f9
:10081000cf8720000e7f22000e018800000000001c
:10082000000020000000e000020032000001200073
:1008300020028800140007005b0007000000e000b1
:1008400003003a00c0a62800010020000200370083
:100850000000200001002000810f70000100320024
:1008600014000700000020000000e0000200320039
:10087000000002000000000080860200000000006e
:100880000040da000000fe004440a90020012000e2
:100890000000e0000300320010002000a0018800ea
:1008a0004440a800000006008a1f78008b1f7800d3
:1008b0000000060091018800800478000000eb0031
:1008c0001a003700e284440032a0b4009905ba004f
:1008d000e284440032a0b4009906ba00e2844400e5
:1008e00032a0b4000006eb00476fde00fd07b20047
:1008f000636ce10003003a00ebff07000000eb002f
:100900000a003700606ce10004003a00005deb0073
:100910008b05e900fdff3e00040037006168e1003f
:10092000010032000086eb000b00070019c7ba0077
:100930001905ba000e04e00003003a000a00e000c6
:10094000e0ff3a0000000600fe07b2009e018800aa
:100950008a047800f5ff3700395dba008b05e9009d
:100960000c003200295dba008b05e9000800320056
:100970000c00e00003003a00e284440032a0b4001e
:10098000f5ff370019ddba008b05e900faff3a00e0
:100990008904e800e184440032a0b40000000600ad
:0c09a0000040da000000fe00000005002e
:020000040000fa
:020000040001f9
:1008000032570000596d00007545000000000000df
:020000040000fa
:020000040001f9
:0457fc003f3f00002b
:020000040000fa
:020000040001f9
:0457f8009f79000095
:020000040000fa
:020000040001f9
:1009ac0048520000445f00005553000042200000f4
:1009bc00563100002e310000004b0000303000009a
:0409cc000000000027
:020000040000fa
:020000040001f9
:1009d0000868ef0018c2ab000100320018c2a9007d
:1009e0001822ab000d0032008010800009e8b7002b
:1009f00018a2ab0003003a0010c0b30000e8b70033
:100a0000060037000048e200020032000068ef00f4
:100a10000200370010c0b30008e8b700000006006d
:100a20000080fb009010880001002400c2108000ac
:100a300002806000fdff3a0000000600881f780079
:100a4000000478001862ab00feff3a001602a8000e
:100a50001602ab00feff3a000040eb00f0ff07007b
:100a60001822ab0004003200801080001822ab0076
:100a7000fdff3a0009e8b7000040eb00e8ff07007f
:100a80001822ab0004003200801080001822ab0056
:100a9000fdff3a0009e8b7000040eb00e0ff070067
:100aa0001822ab0004003200801080001822ab0036
:100ab000fdff3a0009e8b70010c0b300d8ff0700f7
:100ac0001822ab0004003200801080001822ab0016
:100ad000fdff3a0009e8b70090c0b300d0ff07005f
:100ae0001822ab0004003200801080001822ab00f6
:100af000fdff3a0009e8b700184078000004e00064
:100b00000a003400c6ff07001822ab0004003200c0
:100b1000801080001822ab00fdff3a0009e8b70002
:100b2000584078000004e000f6ff3c000040eb0075
:100b3000bbff07001822ab000400320080108000c9
:100b40001822ab00fdff3a0009e8b7001642a800e2
:100b50001642ab00feff3a001882ab00feff3200e7
:100b60001822ab0004003200801080001822ab0075
:100b7000fdff3a0009e8b7004f04780000000600c6
:100b80009040780002c4b30082cf500003003400cc
:100b900092ccb30002c140000200370002cdb30086
:100ba00002c140009040900000c4b30080cf5000cc
:100bb0000300340090ccb30080c040000200370036
:100bc00000cdb30080c040004410dd0000c04000f4
:100bd000000006002ca3ef0068e0a80068c0a80091
:100be000cc42a900c842a900001027002100200023
:100bf0002b020700c842a800c862a800f009200024
:100c0000a01088001a22ef0016c2a90016e2a80060
:100c10001722a80017a2a90017e2a80000000600ea
:100c2000400ade00050020008443780026032000ef
:100c3000074b78001009ba001080ba00804978008c
:100c40000000060022042400023b88004009de0068
:100c5000030020008242780024032000054a780027
:100c600002f02f00020060008000eb000108bb00d2
:100c70000600fc0050052000303b8800a00a200040
:100c8000303b880061e7a800000000000000000081
:100c900001002800023b800002806000fdff3a0056
:100ca0000000060034002400043b8800400ade00f7
:100cb000050020008443780026032000074b7800bd
:100cc0000208bb008381fb000388bb000600fc0018
:100cd00050052000303b8800a00a2000303b8800ef
:100ce00061e7a800000000000000000001002800eb
:100cf000023b800002806000fdff3a000000060019
:100d00003c00fa00889fbe008a9fbe008c9fbe00f8
:100d1000604d28000c000900305f7800de00b10053
:100d20004102200081004700324e280003000900e4
:100d3000b2587800e0c4b300006f98000040eb00a8
:100d4000106f9800a3ff0700c8c2a900ccc2a90079
:100d5000c30220008e814100a20220000e0141004a
:100d60000000280001002000adff07005e16900083
:100d700060c5b300504f9800a0c3b300604f980007
:100d8000c30220008e814100a20220000e0141001a
:100d90000040280001002000a1ff07005e10900025
:100da000704f98004800de0000579800c3022000f2
:100db0008e814100a20220000e0141002040280047
:100dc0000100200096ff07005e1090001057980069
:100dd0004800de0020579800c30220008e814100a9
:100de000a20220000e014100404028000100200026
:100df0008bff07005e109000305798004800de001f
:100e000040579800c0c2b300505798000e00e90048
:100e1000f50047006c014700d0687800820f500051
:100e2000fdff3a000040eb00206798000044780086
:100e300009352c000085eb00010037008004eb0031
:100e4000e3fe070008c8bf00e14f500083013a00ed
:100e50003b40800009c8bf00c183200080f07d00b6
:100e60007c013a000100780043c0b30090cf11002c
:100e700076013a0000c3b30050679800606798009d
:100e8000e08320001040780091c4b300814f5000ef
:100e90002e0032000a003c0041c4b300814f5000d4
:100ea0003001320051c4b300814f5000590132006b
:100eb00021c4b300814f50005e013a000f0037009b
:100ec00021c5b300814f50005801320004003c009e
:100ed00001c5b300814f500056013a003900370078
:100ee00061c5b300814f50000a00320071c5b300e4
:100ef000814f50004f013a004f0037000804e000d6
:100f00004c013a00ccc2a80018c0b30009352c002f
:100f100048013700e14f540046013a006016800056
:100f20004600de000080ea00610060004600dd004f
:100f3000611680000160a1008100700061168800c8
:100f40006d004700bdfe07003a0137000840e90088
:100f5000e14f500037013e007e48900001842000a0
:100f6000914f100033013a000e5090001184200080
:100f7000914f10002f013a001e5090002184200054
:100f8000914f10002b013a002e5090003184200028
:100f9000914f100027013a003e50900041842000fc
:100fa000914f100023013a004e50900051842000d0
:100fb000914f10001f013a00ccc2a80028c0b30016
:100fc0001e0137000840e900e14f500019013e00c2
:100fd0007e48900001842000914f100015013a00d6
:100fe0000e50900011842000914f100011013a0022
:100ff0001e50900021842000914f10000d013a00f6
:101000002e50900031842000914f100009013a00c9
:101010003e50900041842000914f100005013a009d
:101020004e50900051842000914f100001013a0071
:1010300038c0b30001013700e34f5400fd003a000f
:10104000a0c3b300f1832000914f1000f9003a00d3
:1010500000842000cafe070004e8b70020842000b6
:10106000c7fe07008046780040842000c4fe0700c9
:10107000c86edd000080fb000d007000301f98007e
:101080006040880060842000bdfe07008046780034
:10109000b48020000d4a78003e1890006101b8002d
:1010a000104080008000eb00c000dd000000200048
:1010b00000007100818071008101d1000081d300a6
:1010c000321f9800431f98007240880083408800b8
:1010d0008b81e900531f9800c083200060c2790013
:1010e000546798008b00e900e0c0780061679800c1
:1010f000e1cf56000f003a00ccc2a800e10f450036
:1011000001003a000a202000000028000100200011
:10111000ccfe07008041eb000a01780000002800a7
:1011200001002000dffe07000a06780028c0b30097
:10113000c20037003e189000ce189000f2ff270042
:10114000820f5000e08f5800bc003e000a68ef009c
:1011500040c0b30017e8b70007003700c383200082
:101160000300400086fe07000a68b4004e7290003b
:1011700004c0e80017e8b7007581200095427800a8
:10118000457798000580fb00de189000808f5000a6
:10119000f2ff3e000a48ee004077980000417800d8
:1011a000a180200082487800a083200000804500b4
:1011b00073fe0700ce71900080cf51000400320012
:1011c000800220000e0040001cfe0700990037003e
:1011d0000d04e0004c003a00c0c0b30017e8b700af
:1011e0001668ef00cd8320000b0037006b812000d4
:1011f0009b4578000d00400061fe07008b80fb00de
:10120000c481200000f278008b45e8000b40780094
:1012100016e8b70017e8ec0017c8bf000080fb0015
:10122000de189000808f5000f0ff3e003e199000c5
:10123000ce199000e00f5100e08f590009003a00ec
:10124000a08420004efe0700004578008084200026
:101250004bfe07004855dd000080fb000a057000ca
:10126000340037003e1a9000ce1a9000000028008b
:10127000800f5200e08f5a002e003200cb812000f8
:101280006011b800321f9800431f98001500370006
:101290001b4190004811dd001b80fb000201700023
:1012a0003e189000ce1890008102d1000082d30039
:1012b000704080008140800004004000858048002c
:1012c000ab41900077fe07003e199000ce199000c8
:1012d00064014100e0814900321f9800431f9800db
:1012e000e485450004c8bf000080fb008000eb00df
:1012f0003e1a9000ce1a9000800f5200818f5a0043
:10130000e3ff39000b003700e4cf560009003a0034
:10131000808420001afe070080457800a084200009
:1013200017fe0700c85ddd000080fb000b007000a9
:101330001040880010c0b30005e8b70060168000b8
:101340004600de000080ea00610060004600dd002b
:10135000611680000160a1008100700061168800a4
:1013600034003700e34f540032003a00d30220002b
:101370008e814100020320000e0141006000b80090
:1013800027fe0700e30220008e8141002203200097
:101390000e014100200020000100200020fe070077
:1013a0001828ef001a28ef006000b800fa3f280064
:1013b0000b00200023fe0700c2408000d3408000c5
:1013c00004402000050020000200420083804a0003
:1013d000c0408800d14088008a0f50008b8f580091
:1013e000f4ff3600de6990000e1990006000b8002e
:1013f0002cfe0700ee6990001e19900020002000ce
:101400000100200027fe07000085eb000a06780097
:101410000a0037000804e00006003200ccc2a90030
:101420000044eb008004eb000200370018c0b3005a
:1014300009352c000548e200040032000568ef0081
:10144000400220000e0040007cfd07000628ef004f
:10145000020037008b05e8003b4088000804e000ec
:1014600006003a000900e000060032008904e900a5
:10147000000a200001002000090007000900e00028
:101480006ffe3a00e10f46006cfe32000c00e000f7
:101490000200320017e2a9000c000100ffff370034
:020000040000fa
:020000040001f9
:1014a000f03fb1000180b10006003500ee030900f5
:1014b00000000000403fb1000180b100fbff3d0093
:1014c0001000b000203fb00002003500008009008d
:0814d00000000000000006000e
:020000040000fa
:020000040001f9
:1014d8001c08000060000000000000000008000078
:0c14e8001c0000000000000000000000dc
:00000001FF
