:020000040000fa
:04005c00d08400004c
:020000040000fa
:04001000d084000098
:020000040000fa
:04025c00d08400004a
:020000040000fa
:04021000d084000096
:020000040000fa
:04027400d084000032
:020000040000fa
:04033400d084000071
:020000040000fa
:04027000d084000036
:020000040000fa
:04022c00d08400007a
:020000040000fa
:04023c00d08400006a
:020000040000fa
:0402bc00d0840000ea
:020000040000fa
:0402c000d0840000e6
:020000040000fa
:0402c400d0840000e2
:020000040000fa
:04022800d08400007e
:020000040000fa
:04027800d08400002e
:020000040000fa
:04029c00d08400000a
:020000040000fa
:04026000d084000046
:020000040000fa
:04026400d084000042
:020000040000fa
:04027c00d08400002a
:020000040000fa
:04028000d084000026
:020000040000fa
:04028400d084000022
:020000040000fa
:04028800d08400001e
:020000040000fa
:0402b000d0840000f6
:020000040000fa
:0402b400d0840000f2
:020000040000fa
:0402b800d0840000ee
:020000040000fa
:04023800d08400006e
:020000040000fa
:0402c800d0840000de
:020000040000fa
:0402d000d0840000d6
:020000040000fa
:0402d400d0840000d2
:020000040000fa
:0402d800d0840000ce
:020000040000fa
:0402e000d0840000c6
:020000040000fa
:0402e400d0840000c2
:020000040000fa
:0402e800d0840000be
:020000040000fa
:0402f400d0840000b2
:020000040000fa
:0402f800d0840000ae
:020000040000fa
:0402fc00d0840000aa
:020000040000fa
:04030000d0840000a5
:020000040000fa
:04030400d0840000a1
:020000040000fa
:04030800d08400009d
:020000040000fa
:04030c00d084000099
:020000040000fa
:04031000d084000095
:020000040000fa
:04031400d084000091
:020000040000fa
:04031800d08400008d
:020000040000fa
:04031c00d084000089
:020000040000fa
:04032400d084000081
:020000040000fa
:04032800d08400007d
:020000040000fa
:04033800d08400006d
:020000040000fa
:04033c00d084000069
:020000040000fa
:04034000d084000065
:020000040000fa
:04034400d084000061
:020000040000fa
:04034800d08400005d
:020000040000fa
:04026c00d08400003a
:020000040000fa
:0402f000d0840000b6
:020000040000fa
:04021800d08400008e
:020000040000fa
:04023000d084000076
:020000040000fa
:04024000d084000066
:020000040000fa
:04028c00d08400001a
:020000040000fa
:04029000d084000016
:020000040000fa
:0402cc00d0840000da
:020000040000fa
:04020c00d08400009a
:020000040000fa
:0402dc00d0840000ca
:020000040000fa
:04032000d084000085
:020000040000fa
:04020800d08400009e
:020000040000fa
:04021c00d08400008a
:020000040000fa
:04022000d084000086
:020000040000fa
:04022400d084000082
:020000040000fa
:04026800d08400003e
:020000040000fa
:0402ec00d0840000ba
:020000040000fa
:04024c00d08400005a
:020000040000fa
:04025000d084000056
:020000040000fa
:0402a800d0840000fe
:020000040000fa
:0402ac00d0840000fa
:020000040000fa
:04021400d084000092
:020000040000fa
:04023400d084000072
:020000040000fa
:04024400d084000062
:020000040000fa
:04024800d08400005e
:020000040000fa
:04029400d084000012
:020000040000fa
:04029800d08400000e
:020000040000fa
:04032c00d084000079
:020000040000fa
:04025400d084000052
:020000040000fa
:04025800d08400004e
:020000040000fa
:04033000d084000075
:020000040000fa
:0402a000d084000006
:020000040000fa
:0402a400d084000002
:020000040000fa
:04007400d084000034
:020000040000fa
:04013400d084000073
:020000040000fa
:04007000d084000038
:020000040000fa
:04002c00d08400007c
:020000040000fa
:04003c00d08400006c
:020000040000fa
:0400bc00d0840000ec
:020000040000fa
:0400c000d0840000e8
:020000040000fa
:0400c400d0840000e4
:020000040000fa
:04002800d084000080
:020000040000fa
:04007800d084000030
:020000040000fa
:04009c00d08400000c
:020000040000fa
:04006000d084000048
:020000040000fa
:04006400d084000044
:020000040000fa
:04007c00d08400002c
:020000040000fa
:04008000d084000028
:020000040000fa
:04008400d084000024
:020000040000fa
:04008800d084000020
:020000040000fa
:0400b000d0840000f8
:020000040000fa
:0400b400d0840000f4
:020000040000fa
:0400b800d0840000f0
:020000040000fa
:04003800d084000070
:020000040000fa
:0400c800d0840000e0
:020000040000fa
:0400d000d0840000d8
:020000040000fa
:0400d400d0840000d4
:020000040000fa
:0400d800d0840000d0
:020000040000fa
:0400e000d0840000c8
:020000040000fa
:0400e400d0840000c4
:020000040000fa
:0400e800d0840000c0
:020000040000fa
:0400f400d0840000b4
:020000040000fa
:0400f800d0840000b0
:020000040000fa
:0400fc00d0840000ac
:020000040000fa
:04010000d0840000a7
:020000040000fa
:04010400d0840000a3
:020000040000fa
:04010800d08400009f
:020000040000fa
:04010c00d08400009b
:020000040000fa
:04011000d084000097
:020000040000fa
:04011400d084000093
:020000040000fa
:04011800d08400008f
:020000040000fa
:04011c00d08400008b
:020000040000fa
:04012400d084000083
:020000040000fa
:04012800d08400007f
:020000040000fa
:04013800d08400006f
:020000040000fa
:04013c00d08400006b
:020000040000fa
:04014000d084000067
:020000040000fa
:04014400d084000063
:020000040000fa
:04014800d08400005f
:020000040000fa
:04006c00d08400003c
:020000040000fa
:0400f000d0840000b8
:020000040000fa
:04001800d084000090
:020000040000fa
:04003000d084000078
:020000040000fa
:04004000d084000068
:020000040000fa
:04008c00d08400001c
:020000040000fa
:04009000d084000018
:020000040000fa
:0400cc00d0840000dc
:020000040000fa
:04000c00d08400009c
:020000040000fa
:0400dc00d0840000cc
:020000040000fa
:04012000d084000087
:020000040000fa
:04000800d0840000a0
:020000040000fa
:04001c00d08400008c
:020000040000fa
:04002000d084000088
:020000040000fa
:04002400d084000084
:020000040000fa
:04006800d084000040
:020000040000fa
:0400ec00d0840000bc
:020000040000fa
:04004c00d08400005c
:020000040000fa
:04005000d084000058
:020000040000fa
:0400a800d084000000
:020000040000fa
:0400ac00d0840000fc
:020000040000fa
:04001400d084000094
:020000040000fa
:04003400d084000074
:020000040000fa
:04004400d084000064
:020000040000fa
:04004800d084000060
:020000040000fa
:04009400d084000014
:020000040000fa
:04009800d084000010
:020000040000fa
:04012c00d08400007b
:020000040000fa
:04005400d084000054
:020000040000fa
:04005800d084000050
:020000040000fa
:04013000d084000077
:020000040000fa
:0400a000d084000008
:020000040000fa
:0400a400d084000004
:020000040000fa
:08000000088404000000000068
:020000040000fa
:020000040001f9
:10081000cf8720000e7f22000e018800000000001c
:10082000000020000000e000020032000001200073
:1008300020028800140007005b0007000000e000b1
:1008400003003a0080a328000100200002003700c6
:100850000000200001002000810f70000100320024
:1008600014000700000020000000e0000200320039
:1008700000000200000000007e8602000000000070
:100880000040da000000fe004440a90020012000e2
:100890000000e0000300320010002000a0018800ea
:1008a0004440a800000006008a1f78008b1f7800d3
:1008b0000000060091018800800478000000eb0031
:1008c0001a003700e284440032a0b4009905ba004f
:1008d000e284440032a0b4009906ba00e2844400e5
:1008e00032a0b4000006eb00476fde00fd07b20047
:1008f000636ce10003003a00ebff07000000eb002f
:100900000a003700606ce10004003a00005deb0073
:100910008b05e900fdff3e00040037006168e1003f
:10092000010032000086eb000b00070019c7ba0077
:100930001905ba000e04e00003003a000a00e000c6
:10094000e0ff3a0000000600fe07b2009e018800aa
:100950008a047800f5ff3700395dba008b05e9009d
:100960000c003200295dba008b05e9000800320056
:100970000c00e00003003a00e284440032a0b4001e
:10098000f5ff370019ddba008b05e900faff3a00e0
:100990008904e800e184440032a0b40000000600ad
:0c09a0000040da000000fe00000005002e
:020000040000fa
:020000040001f9
:100800005a4c0000444b00006374000000000000dc
:020000040000fa
:020000040001f9
:0457fc003f3f00002b
:020000040000fa
:020000040001f9
:0457f8009b79000099
:020000040000fa
:020000040001f9
:1009ac0048520000445f00004554000048450000d8
:1009bc00524e000045540000004b00003030000047
:0409cc000000000027
:020000040000fa
:020000040001f9
:1009d0000868ef0008c2ab000100320008c2a9009d
:1009e0000822ab000d0032000010800009e8b700bb
:1009f00008a2ab0003003a0010c0b30000e8b70043
:100a0000060037000048e200020032000068ef00f4
:100a10000200370010c0b30008e8b700000006006d
:100a20000080fb00101088000100240042108000ac
:100a300002806000fdff3a0000000600881f780079
:100a4000000478000862ab00feff3a000602a8002e
:100a50000602ab00feff3a000040eb00f0ff07008b
:100a60000822ab0004003200001080000822ab0016
:100a7000fdff3a0009e8b7000040eb00e8ff07007f
:100a80000822ab0004003200001080000822ab00f6
:100a9000fdff3a0009e8b7000040eb00e0ff070067
:100aa0000822ab0004003200001080000822ab00d6
:100ab000fdff3a0009e8b70010c0b300d8ff0700f7
:100ac0000822ab0004003200001080000822ab00b6
:100ad000fdff3a0009e8b70090c0b300d0ff07005f
:100ae0000822ab0004003200001080000822ab0096
:100af000fdff3a0009e8b700184078000004e00064
:100b00000a003400c6ff07000822ab0004003200d0
:100b1000001080000822ab00fdff3a0009e8b70092
:100b2000584078000004e000f6ff3c000040eb0075
:100b3000bbff07000822ab00040032000010800059
:100b40000822ab00fdff3a0009e8b7000642a80002
:100b50000642ab00feff3a000882ab00feff320007
:100b60000822ab0004003200001080000822ab0015
:100b7000fdff3a0009e8b7004f04780000000600c6
:100b80009040780002c4b30082cf500003003400cc
:100b900092ccb30002c140000200370002cdb30086
:100ba00002c140009040900000c4b30080cf5000cc
:100bb0000300340090ccb30080c040000200370036
:100bc00000cdb30080c040004410dd0000c04000f4
:100bd000000006006b00a8006b60a800cca2a90072
:100be000c8a2a9000010270021002000120207005f
:100bf000c8a2a800c8c2a800f009200020108800e0
:100c00000a22ef0006c2a90006e2a8000722a800f7
:100c100007a2a90007e2a80000000600400ade00c3
:100c2000050020008443780026032000074b78004d
:100c30001009ba001080ba00804978000000060050
:100c400034002400043b8800400ade000500200038
:100c50008443780026032000074b78000208bb007d
:100c60008381fb000388bb000600fc0050052000c8
:100c7000303b8800a00a2000303b880061e7a800d4
:100c8000000000000000000001002800023b80007e
:100c900002806000fdff3a000000060022042400ec
:100ca000023b88004009de000300200082427800f9
:100cb00024032000054a780002f02f0002006000a3
:100cc0008000eb000108bb000600fc00500520007e
:100cd000303b8800a00a2000303b880061e7a80074
:100ce000000000000000000001002800023b80001e
:100cf00002806000fdff3a00000006003600fa00a6
:100d0000889fbe008a9fbe008c9fbe00604d280059
:100d10000c000900305f7800de00b10041022000c5
:100d200081004700324e280003000900b2587800c5
:100d3000e0c4b300006f98000040eb00106f980013
:100d4000a4ff0700c8e2a900cce2a900c30220006a
:100d50008e814100a20220000e0141000000280007
:100d600001002000adff07005e16900060c5b300d3
:100d7000504f9800a0c3b300604f9800c3022000fa
:100d80008e814100a20220000e0141000040280097
:100d900001002000a1ff07005e109000704f980036
:100da0004800de0000579800c30220008e814100f9
:100db000a20220000e014100204028000100200076
:100dc00096ff07005e109000105798004800de0064
:100dd00020579800c30220008e814100a20220000b
:100de0000e01410040402800010020008bff070059
:100df0005e109000305798004800de004057980081
:100e0000c0c2b300505798000e00e900f50047003b
:100e10006c014700d0687800820f5000fdff3a0057
:100e20000040eb00206798000044780009352c0052
:100e30008085eb00010037008004eb00e4fe070032
:100e400008c8bf00e14f50006b013a003a408000f3
:100e500009c8bf00c183200080707d0063013a0093
:100e60000100780043c0b30090cf11005d013a004b
:100e700000c3b3005067980060679800e0832000cb
:100e80001040780091c4b300814f50002e00320012
:100e90000a003c0041c4b300814f50002d013200d4
:100ea00051c4b300814f50004001320021c4b3004f
:100eb000814f500045013a000f00370021c5b300b3
:100ec000814f50003f01320004003c0001c5b300d7
:100ed000814f50003d013a003900370061c5b30031
:100ee000814f50000a00320071c5b300814f50009d
:100ef00036013a004f0037000804e00033013a00a1
:100f0000cce2a80018c0b30009352c002f0137002f
:100f1000e14f54002d013a00601680004700de00ca
:100f20000080ea00610060004700dd00611680007b
:100f30000170a10081007000611688006d004700fb
:100f4000befe0700210137000840e900e14f5000d4
:100f50001e013e007e48900001842000914f100049
:100f60001a013a000e50900011842000914f100099
:100f700016013a001e50900021842000914f10006d
:100f800012013a002e50900031842000914f100041
:100f90000e013a003e50900041842000914f100015
:100fa0000a013a004e50900051842000914f1000e9
:100fb00006013a00cce2a80028c0b30005013700c2
:100fc0000840e900e14f500000013e007e489000db
:100fd00001842000914f1000fc003a000e50900058
:100fe00011842000914f1000f8003a001e5090002c
:100ff00021842000914f1000f4003a002e50900000
:1010000031842000914f1000f0003a003e509000d3
:1010100041842000914f1000ec003a004e509000a7
:1010200051842000914f1000e8003a0038c0b3000e
:10103000e8003700e34f5400e4003a00a0c3b300d7
:10104000f1832000914f1000e0003a00008420005e
:10105000cbfe070004e8b70020842000c8fe07008c
:101060008046780040842000c5fe0700c86edd0081
:101070000080fb000d007000001f98006040880099
:1010800060842000befe070080467800b480200007
:101090000d4a78000e1890006101b80010408000e1
:1010a0008000eb00c000dd000000200000007100a7
:1010b000818071008101d1000081d300021f98005e
:1010c000131f980072408800834088008a81e900dd
:1010d000231f9800c083200060c2790054679800e5
:1010e0008a00e900e0c0780061679800e1cf56000f
:1010f0000c003a00cce2a80000002800010020000b
:10110000e6fe07008041eb000b017800000028009c
:1011100001002000cafe07000b06780028c0b300bb
:10112000ac0037000e1890009e189000f2ff2700c8
:10113000820f5000e08f5800a6003e000a68ef00c2
:1011400040c0b30017e8b70007003700c383200092
:10115000030040008afe07000a68b4006e6a90002f
:1011600004c0e80017e8b7007581200095427800b8
:10117000656f98000580fb00ae189000808f5000ce
:10118000f2ff3e000a48ee00606f980000417800d0
:10119000a180200082487800a08320000000450044
:1011a00077fe0700ee69900080cf51000400320006
:1011b000800220000e00400020fe07008300370060
:1011c0000d04e0004c003a00c0c0b30017e8b700bf
:1011d0001668ef00cd8320000b0037006a812000e5
:1011e0001a4578000d00400065fe07008a80fb006c
:1011f000c481200000f278000a45e8000a40780027
:1012000016e8b70017e8ec0017c8bf000080fb0025
:10121000ae189000808f5000f0ff3e000e19900035
:101220009e199000e00f5100e08f590009003a002c
:10123000a084200052fe0700004578008084200032
:101240004ffe07004855dd000080fb008a05700056
:10125000340037000e1a90009e1a900000002800fb
:10126000800f5200e08f5a002e003200ca81200009
:101270006011b800021f9800131f98001500370076
:101280001a4190004811dd001a80fb000201700035
:101290000e1890009e1890008102d1000082d300a9
:1012a000704080008140800004004000858048003c
:1012b000aa41900062fe07000e1990009e1990004e
:1012c00064014100e0814900021f9800131f98004b
:1012d0006405450004c8bf000080fb008000eb00ef
:1012e0000e1a90009e1a9000800f5200818f5a00b3
:1012f000e3ff39000b003700e4cf560009003a0045
:10130000808420001efe070000457800a084200095
:101310001bfe07004855dd000080fb000a0070003e
:101320001040880010c0b30005e8b70060168000c8
:101330004700de000080ea00610060004700dd0039
:10134000611680000170a1008100700061168800a4
:101350001e003700e34f54001c003a001828ef002d
:101360001a28ef006000b800fa3f28000b002000a8
:101370004afe0700c2408000d340800004402000a5
:10138000050020000200420083804a00c04088001f
:10139000d14088008a0f50008b8f5800f4ff360030
:1013a0008085eb000b0678000a0037000804e00097
:1013b00006003200cce2a9000044eb008004eb0000
:1013c0000200370018c0b30009352c000548e200c0
:1013d000040032000568ef00400220000e004000cb
:1013e00096fd07000628ef000b0037000a05e8000d
:1013f0003a408800080037000900e0000800320089
:101400000804e0008dfe3a008904e900000a20008b
:1014100001002000080007000900e00087fe3a00f4
:10142000e10f460084fe32000c00e00001003200b3
:081430000c000100ffff370072
:020000040000fa
:020000040001f9
:10143800f03fb1000180b10006003500ee0309005d
:1014480000000000403fb1000180b100fbff3d00fb
:101458001000b000203fb0000200350000800900f5
:08146800000000000000060076
:020000040000fa
:020000040001f9
:101470001c080000600000000000000000080000e0
:0c1480001c000000000000000000000044
:00000001FF
