:020000040000fa
:04005c00c8020000d6
:020000040000fa
:04001000c802000022
:020000040000fa
:04025c00c8020000d4
:020000040000fa
:04021000c802000020
:020000040000fa
:04027400c8020000bc
:020000040000fa
:04033400c8020000fb
:020000040000fa
:04027000c8020000c0
:020000040000fa
:04022c00c802000004
:020000040000fa
:04023c00c8020000f4
:020000040000fa
:0402bc00c802000074
:020000040000fa
:0402c000c802000070
:020000040000fa
:0402c400c80200006c
:020000040000fa
:04022800c802000008
:020000040000fa
:04027800c8020000b8
:020000040000fa
:04029c00c802000094
:020000040000fa
:04026000c8020000d0
:020000040000fa
:04026400c8020000cc
:020000040000fa
:04027c00c8020000b4
:020000040000fa
:04028000c8020000b0
:020000040000fa
:04028400c8020000ac
:020000040000fa
:04028800c8020000a8
:020000040000fa
:0402b000c802000080
:020000040000fa
:0402b400c80200007c
:020000040000fa
:0402b800c802000078
:020000040000fa
:04023800c8020000f8
:020000040000fa
:0402c800c802000068
:020000040000fa
:0402d000c802000060
:020000040000fa
:0402d400c80200005c
:020000040000fa
:0402d800c802000058
:020000040000fa
:0402e000c802000050
:020000040000fa
:0402e400c80200004c
:020000040000fa
:0402e800c802000048
:020000040000fa
:0402f400c80200003c
:020000040000fa
:0402f800c802000038
:020000040000fa
:0402fc00c802000034
:020000040000fa
:04030000c80200002f
:020000040000fa
:04030400c80200002b
:020000040000fa
:04030800c802000027
:020000040000fa
:04030c00c802000023
:020000040000fa
:04031000c80200001f
:020000040000fa
:04031400c80200001b
:020000040000fa
:04031800c802000017
:020000040000fa
:04031c00c802000013
:020000040000fa
:04032400c80200000b
:020000040000fa
:04032800c802000007
:020000040000fa
:04033800c8020000f7
:020000040000fa
:04033c00c8020000f3
:020000040000fa
:04034000c8020000ef
:020000040000fa
:04034400c8020000eb
:020000040000fa
:04034800c8020000e7
:020000040000fa
:04026c00c8020000c4
:020000040000fa
:0402f000c802000040
:020000040000fa
:04021800c802000018
:020000040000fa
:04023000c802000000
:020000040000fa
:04024000c8020000f0
:020000040000fa
:04028c00c8020000a4
:020000040000fa
:04029000c8020000a0
:020000040000fa
:0402cc00c802000064
:020000040000fa
:04020c00c802000024
:020000040000fa
:0402dc00c802000054
:020000040000fa
:04032000c80200000f
:020000040000fa
:04020800c802000028
:020000040000fa
:04021c00c802000014
:020000040000fa
:04022000c802000010
:020000040000fa
:04022400c80200000c
:020000040000fa
:04026800c8020000c8
:020000040000fa
:0402ec00c802000044
:020000040000fa
:04024c00c8020000e4
:020000040000fa
:04025000c8020000e0
:020000040000fa
:0402a800c802000088
:020000040000fa
:0402ac00c802000084
:020000040000fa
:04021400c80200001c
:020000040000fa
:04023400c8020000fc
:020000040000fa
:04024400c8020000ec
:020000040000fa
:04024800c8020000e8
:020000040000fa
:04029400c80200009c
:020000040000fa
:04029800c802000098
:020000040000fa
:04032c00c802000003
:020000040000fa
:04025400c8020000dc
:020000040000fa
:04025800c8020000d8
:020000040000fa
:04033000c8020000ff
:020000040000fa
:0402a000c802000090
:020000040000fa
:0402a400c80200008c
:020000040000fa
:04007400c8020000be
:020000040000fa
:04013400c8020000fd
:020000040000fa
:04007000c8020000c2
:020000040000fa
:04002c00c802000006
:020000040000fa
:04003c00c8020000f6
:020000040000fa
:0400bc00c802000076
:020000040000fa
:0400c000c802000072
:020000040000fa
:0400c400c80200006e
:020000040000fa
:04002800c80200000a
:020000040000fa
:04007800c8020000ba
:020000040000fa
:04009c00c802000096
:020000040000fa
:04006000c8020000d2
:020000040000fa
:04006400c8020000ce
:020000040000fa
:04007c00c8020000b6
:020000040000fa
:04008000c8020000b2
:020000040000fa
:04008400c8020000ae
:020000040000fa
:04008800c8020000aa
:020000040000fa
:0400b000c802000082
:020000040000fa
:0400b400c80200007e
:020000040000fa
:0400b800c80200007a
:020000040000fa
:04003800c8020000fa
:020000040000fa
:0400c800c80200006a
:020000040000fa
:0400d000c802000062
:020000040000fa
:0400d400c80200005e
:020000040000fa
:0400d800c80200005a
:020000040000fa
:0400e000c802000052
:020000040000fa
:0400e400c80200004e
:020000040000fa
:0400e800c80200004a
:020000040000fa
:0400f400c80200003e
:020000040000fa
:0400f800c80200003a
:020000040000fa
:0400fc00c802000036
:020000040000fa
:04010000c802000031
:020000040000fa
:04010400c80200002d
:020000040000fa
:04010800c802000029
:020000040000fa
:04010c00c802000025
:020000040000fa
:04011000c802000021
:020000040000fa
:04011400c80200001d
:020000040000fa
:04011800c802000019
:020000040000fa
:04011c00c802000015
:020000040000fa
:04012400c80200000d
:020000040000fa
:04012800c802000009
:020000040000fa
:04013800c8020000f9
:020000040000fa
:04013c00c8020000f5
:020000040000fa
:04014000c8020000f1
:020000040000fa
:04014400c8020000ed
:020000040000fa
:04014800c8020000e9
:020000040000fa
:04006c00c8020000c6
:020000040000fa
:0400f000c802000042
:020000040000fa
:04001800c80200001a
:020000040000fa
:04003000c802000002
:020000040000fa
:04004000c8020000f2
:020000040000fa
:04008c00c8020000a6
:020000040000fa
:04009000c8020000a2
:020000040000fa
:0400cc00c802000066
:020000040000fa
:04000c00c802000026
:020000040000fa
:0400dc00c802000056
:020000040000fa
:04012000c802000011
:020000040000fa
:04000800c80200002a
:020000040000fa
:04001c00c802000016
:020000040000fa
:04002000c802000012
:020000040000fa
:04002400c80200000e
:020000040000fa
:04006800c8020000ca
:020000040000fa
:0400ec00c802000046
:020000040000fa
:04004c00c8020000e6
:020000040000fa
:04005000c8020000e2
:020000040000fa
:0400a800c80200008a
:020000040000fa
:0400ac00c802000086
:020000040000fa
:04001400c80200001e
:020000040000fa
:04003400c8020000fe
:020000040000fa
:04004400c8020000ee
:020000040000fa
:04004800c8020000ea
:020000040000fa
:04009400c80200009e
:020000040000fa
:04009800c80200009a
:020000040000fa
:04012c00c802000005
:020000040000fa
:04005400c8020000de
:020000040000fa
:04005800c8020000da
:020000040000fa
:04013000c802000001
:020000040000fa
:0400a000c802000092
:020000040000fa
:0400a400c80200008e
:020000040000fa
:080000000002040000000000f2
:020000040000fa
:10040000ef8720000e7f22000e0188000000000010
:10041000000020000000e000020032000001200087
:1004200020028800140007005b0007000000e000c5
:1004300003003a0000c0280001002000020037003d
:100440000000200001002000810f70000100320038
:1004500014000700000020000000e000020032004d
:1004600000000200000000008e8602000000000074
:100470000040da000000fe004440a90020012000f6
:100480000000e0000300320010002000a0018800fe
:100490004440a800000006008a1f78008b1f7800e7
:1004a0000000060091018800800478000000eb0045
:1004b0001a003700e284440032a0b4009905ba0063
:1004c000e284440032a0b4009906ba00e2844400f9
:1004d00032a0b4000006eb00476fde00fd07b2005b
:1004e000636ce10003003a00ebff07000000eb0043
:1004f0000a003700606ce10004003a00005deb0088
:100500008b05e900fdff3e00040037006168e10053
:10051000010032000086eb000b00070019c7ba008b
:100520001905ba000e04e00003003a000a00e000da
:10053000e0ff3a0000000600fe07b2009e018800be
:100540008a047800f5ff3700395dba008b05e900b1
:100550000c003200295dba008b05e900080032006a
:100560000c00e00003003a00e284440032a0b40032
:10057000f5ff370019ddba008b05e900faff3a00f4
:100580008904e800e184440032a0b40000000600c1
:0c0590000040da000000fe000000050042
:020000040000fa
:020000040001f9
:100800006a770000724900003042000000000000da
:020000040000fa
:020000040001f9
:0457fc003f3f00002b
:020000040000fa
:020000040001f9
:0457f8009b79000099
:020000040000fa
:020000040001f9
:1008100048520000445f0000455400004845000075
:10082000524e000045540000004b000030300000e4
:0408300000000000c4
:020000040000fa
:020000040001f9
:100834000a00fa0010079800210798003207980070
:10084400430798001e009000ae0090004008de00b0
:100854000040780032e0b7009e009000010f78005d
:100864001e0078009000ba003e0090000108780055
:100874001e0078001080ba00804078004e0090007e
:10088400014878000080fa00000006000a00fa001f
:10089400100798002107980032079800034f98002a
:1008a40030002400003b88001e009000ae00900041
:1008b4004008de000040780032e0b7009e0090005f
:1008c400010f78001e007800be0090000108bb00f4
:1008d4000e4890008080fb001e0078000188bb0059
:1008e4000600fc0050052000303b8800a00a2000d0
:1008f400303b880061e7a800000000000000000011
:1009040000000000013b800000002800008060001f
:100914000000e000fbff3a000080fa00000006003f
:100924000600fa001007980021079800200424000c
:10093400003b88001e009000ae0090004008de00de
:100944000040780032e0b7009e00900000f02f00d5
:10095400008f60001e0078008000eb000108bb00df
:100964000600fc0050052000303b8800a00a20004f
:10097400303b880061e7a800000000000000000090
:1009840000000000013b800000002800008060009f
:100994000000e000fbff3a000080fa0000000600bf
:1009a4000000fa000080eb00601988006b00a800ca
:1009b4006b60a800cca2a900c8a2a900001027005f
:1009c400210020007f030700c8a2a800c8c2a80015
:1009d400f0092000201088000a22ef0006c2a900b6
:1009e40006e2a8000722a80007a2a90007e2a800bf
:1009f4000080fa00000006000000fa000168ef0021
:100a04004110800000042000008060000000e0002d
:100a14000100320008c2a90040108000620060009a
:100a24000000e00012003200001080000040780056
:100a340002e8b7004110800000022000008060003e
:100a44000000e00003003a0010c0b30000e8b70063
:100a54000700370000c8bf000004e00002003200b5
:100a64000068ef000200370010c0b30001e8b700cf
:100a74000080fa00000006000200fa00004f78002f
:100a84001e80fb0010108800000000004110800050
:100a940000002400008060000000e000fbff3a003a
:100aa4000080fa00000006000200fa00000f78003f
:100ab4000000000040108000680060000000e000ba
:100ac400fcff3a000602a80000000000301080007d
:100ad400610060000000e000fcff3a000040eb0011
:100ae400e5ff070003003700001080000040780095
:100af40002e8b70040108000620060000000e000df
:100b0400f9ff3a000040eb00dbff07000300370069
:100b1400001080000040780002e8b7004010800018
:100b2400620060000000e000f9ff3a000040eb00c2
:100b3400d1ff070003003700001080000040780058
:100b440002e8b70040108000620060000000e0008e
:100b5400f9ff3a0010c0b300c7ff070003003700d5
:100b6400001080000040780002e8b70040108000c8
:100b7400620060000000e000f9ff3a0090c0b3009a
:100b8400bdff07000300370000108000004078001c
:100b940002e8b70040108000620060000000e0003e
:100ba400f9ff3a000c0037001e007800104078006e
:100bb400b1ff0700030037000010800000407800f8
:100bc40002e8b70040108000620060000000e0000e
:100bd400f9ff3a001e0fe8001e007800104078006c
:100be4000004e000f0ff3c000040eb00a2ff07001f
:100bf40003003700001080000040780002e8b700ce
:100c040040108000620060000000e000f9ff3a003c
:100c14000642a8000000000030108000640060005c
:100c24000000e000fcff3a000000000040108000db
:100c3400700060000000e000fcff32000300370099
:100c4400001080000040780002e8b70040108000e7
:100c5400620060000000e000f9ff3a000080fa0042
:100c6400000006000400fa00100798001e0090001f
:100c74009040780000c4b30080cf500006003400d8
:100c84001e009000104078008040780090ccb300a3
:100c940000c04000050037001e009000104078009e
:100ca4008040780000cdb30000c04000004f7800c1
:100cb4001e0090000000e8009040780000c4b300db
:100cc40080cf5000070034001e0090000000e800b0
:100cd400104078008040780090ccb30000c0400001
:100ce400060037001e0090000000e8001040780065
:100cf4008040780000cdb30000c040001047980049
:100d04001e407800c400dd001e40900000c040007a
:100d14000080fa00000006004400fa00889fbe002c
:100d2400ef004700824028000c000900b258780008
:100d340031032000810047005241280003000900cc
:100d4400b2587800e0c4b300707798000040eb001c
:100d5400007f98000080eb00000f78000080eb001b
:100d64001007980000352c00200798000040eb0085
:100d7400704798000aff0700c8e2a900cce2a90066
:100d8400c10320008e804000a00320000e0040001c
:100d94008101780000017800000028000100200093
:100da400a3fe0700de189000010f780060c5b300b1
:100db400405f9800a0c3b300505f9800c1032000b7
:100dc4008e804000a00320000e00400081017800c6
:100dd40000017800004028000100200094fe070074
:100de4005e18900000407800605f98005e189000e4
:100df4004800de0000407800705f9800c1032000c6
:100e04008e804000a00320000e0040008101780085
:100e140000017800204028000100200084fe070023
:100e24005e18900000407800006798005e189000fb
:100e34004800de000040780010679800c1032000dd
:100e44008e804000a00320000e0040008101780045
:100e540000017800404028000100200074fe0700d3
:100e64005e18900000407800206798005e1890009b
:100e74004800de000040780030679800c0c2b3002c
:100e8400406798000040eb00604798000c00370072
:100e94006e4090000080fb0069004000ee4090002e
:100ea4008180fb0081004700f1489000000047006a
:100eb400415898006e4090000040e8006047980058
:100ec4006e409000ec4f5000f1ff36006e409000f1
:100ed4000080fb0068004000000047008040eb00f9
:100ee400415898002b023700c3fe070001c8bf0019
:100ef400e14f50001b023a00e040800021802000b6
:100f04009140780001417800e183200082707800ec
:100f1400e0408000e1832000614078000004e000ac
:100f24000c023a00e083200010407800e44f5000a7
:100f340006023a0000c3b3004077980000c3b30030
:100f44005077980000842000104078000000fb00d7
:100f540091042000810f50003e00320091042000d3
:100f6400810f50000a003c0041042000810f500012
:100f74008201320051042000810f5000bc01320074
:100f840021042000810f500012003200e8013700d4
:100f940021052000810f5000170032002105200098
:100fa400810f500004003c0001052000810f500017
:100fb40052003200de01370061052000810f50002d
:100fc4001200320071052000810f500074003200bd
:100fd400d70137007e4090000004e000ad013a00e4
:100fe400cce2a80000352c002007980010c0b30004
:100ff40070479800ce01370000352c002007980078
:1010040010c0b30070479800c90137007e409000bb
:10101400e14f5000a1013a00601680004700de0055
:10102400614060000004a200614060000080fb0099
:10103400610060004700dd00611680000170a100be
:1010440001007000601688007c00470096fe0700cf
:10105400b70137007e409000e14f5000030032009a
:101064007e409000e24f50008e013a002084200020
:10107400904078006e58900080cf50008b013a0069
:1010840030842000904078007e58900080cf50003b
:1010940088013a0040842000904078000e6090005f
:1010a40080cf500085013a005084200090407800a1
:1010b4001e60900080cf500082013a0060842000be
:1010c400904078002e60900080cf50007f013a005d
:1010d40070842000904078003e60900080cf5000e3
:1010e4007c013a00cce2a80020c0b300704798000d
:1010f40010c0b3001ae8b7008d0137007e4090009d
:10110400e14f5000030032007e409000e24f500057
:1011140072013a0020842000904078006e589000bc
:1011240080cf50006f013a00308420009040780056
:101134007e58900080cf50006c013a00408420001b
:10114400904078000e60900080cf500069013a0012
:1011540050842000904078001e60900080cf5000a2
:1011640066013a0060842000904078002e60900070
:1011740080cf500063013a007084200090407800d2
:101184003e60900080cf500060013a0030c0b30050
:101194007047980010c0b3001ae8b7006401370024
:1011a4007e409000e34f50005a013a001084200022
:1011b40090407800a0c3b30080cf500057013a009c
:1011c40020842000a7fe070014e8b7004084200014
:1011d400a4fe07000080fb004804dd0060842000ba
:1011e400a0fe07000080fb0008007000304088006b
:1011f400808420009bfe070004e8b7004040800084
:101204008000eb00c001dd000200200030408000bf
:101214008000eb0000007100818071005040880064
:101224006140880050408000614080008100d1000e
:101234000080d3005040880061408800e040800076
:101244000080e900e1832000614078004077980045
:10125400e04080000000e900e18320006140780064
:101264005077980004c8bf00e14f500010003a00c6
:10127400cce2a8001e019000020f780000002800b4
:1012840001002000a6fd07008041eb001e0178004c
:1012940000002800010020007cfd070020c0b300ee
:1012a4007047980010c0b3001ae8b7002001370057
:1012b4005240800063408000f0ff270001002000be
:1012c400800f5100818f5900a9003e000368ef0090
:1012d40040c0b30013e8b7000c00370013c8bf00c8
:1012e4008080fb00e0832000008040005dfe07005a
:1012f40031802000914078000140400003e8b700ad
:1013040013c8bf0000c0e80013e8b70013c8bf004b
:101314008080fb00e04080000080e900808f500066
:10132400eeff390003c8bf000040ea0003e8b7003d
:10133400e04080008080e900e083200000804000dd
:1013440048fe07003180200091407800814f500012
:1013540004003200700320000e004000d2fd07009c
:10136400f300370004c8bf000004e00065003a0041
:10137400c0c0b30013e8b7001268ef000f003700d5
:1013840028812000184478008884fb0013c8bf001b
:101394008080fb00e08320000080400031fe0700d5
:1013a400e181200080f07c000840e80012e8b700ea
:1013b40013c8bf0000c0e80013e8b70013c8bf009b
:1013c4008080fb00e04080000080e900808f5000b6
:1013d400ebff39005040800061408000e00f500076
:1013e400e08f58000a003a00c08420001dfe070068
:1013f4000080fb004804dd00a084200019fe0700e3
:101404000080fb00080070001007980049003700b6
:10141400524080006340800000002800010020004a
:10142400800f5100818f5900420032006000b800e3
:10143400400798005107980029003700e1812000f7
:101444004e00900000804000104078000081fb00b6
:101454004e009000de00900061004000e0804800f3
:10146400e381200000804100104078000080fb00f0
:101474004800dd0002007000600798004e009000f4
:10148400de00900062004000e0804800e28120001d
:101494000000410090407800614f98004e00900099
:1014a400de0090008101d1000081d3005040800013
:1014b400614080000200400083804800ee499000b3
:1014c4006e019000f1fc07004e009000de009000d9
:1014d40064004000e08048004007980051079800ed
:1014e40014c8bf000081fb008001eb004e00900097
:1014f400de009000800f5100818f5900cfff3e0025
:101504000c00370004c8bf00e44f500009003a0043
:10151400a0842000d3fd07000080fb004804dd0008
:10152400c0842000cffd07000080fb00080070008d
:101534004040880010c0b3001ae8b700601680006d
:101544004700de00614060000004a20061406000ca
:101554000080fb00610060004700dd006116800030
:101564000170a1000100700060168800700037004f
:1015740010c0b3001ae8b7006d0037007e40900039
:10158400e34f500067003a00210420008e804000a1
:10159400e00320000e004000810178000001780083
:1015a4006000b800a2fc0700310420008e804000d7
:1015b400000420000e004000810178000001780042
:1015c400200020000100200099fc07000080eb00af
:1015d400000f78000080eb00100798001628ef0039
:1015e4001828ef000b003700b0408000c140800095
:1015f400cbfc0700b2408000c340800000402000c4
:10160400010020000200400083804800b0408800b0
:10161400c1408800b2408000c3408000f03f2800f1
:1016240001002000800f5100818f5900eeff360029
:10163400aec090007e1890008141780000017800cf
:101644006000b80091fc0700bec090000e2090001e
:101654008141780000017800200020000100200072
:101664008afc070010c0b3001ae8b7003000370046
:101674007e4090000004e0002c003200cce2a9007f
:101684000040eb00704798000000eb002007980032
:10169400270037000000000025003700000000008c
:1016a4002300370000000000210037000000000084
:1016b4001f003700000000001d003700000000007c
:1016c4001b00370000000000190037000000000074
:1016d400170037000000000015003700000000006c
:1016e4001300370000000000110037000000000064
:1016f4000f003700000000000d003700000000005c
:101704000b00370000000000090037000000000053
:10171400070037000000000005003700000000004b
:101724000300370000000000010037000000000043
:101734001ac8bf000004e000040032001a68ef0079
:10174400300320000e004000d7fc07001c28ef00e7
:1017540010003700e04080000000e800e04088000e
:101764000c0037002e0090000000e0000900320059
:101774007e4090000004e00006003a002e00900035
:101784000000e90020079800000a20000100200062
:101794000c0007002e0090000000e000d2fd3a008b
:1017a4001e007800e10f4000cffd32001e007800db
:1017b4000000e000020032001e007800000001007a
:0417c400ffff3700ec
:020000040000fa
:020000040001f9
:1017c800f03fb1000180b10006003500ee030900ca
:1017d80000000000403fb1000180b100fbff3d0068
:1017e8001000b000203fb000020035000080090062
:0817f8000000000000000600e3
:020000040000fa
:020000040001f9
:101800001e0800006000000000000000000800004a
:0c1810001e0000000000000000000000ae
:00000001FF
